{"abi":[{"type":"function","name":"BURN_ADDRESS","inputs":[],"outputs":[{"name":"","type":"address","internalType":"address"}],"stateMutability":"view"},{"type":"function","name":"createPact","inputs":[{"name":"_description","type":"string","internalType":"string"},{"name":"_opponent","type":"address","internalType":"address"},{"name":"_duration","type":"uint256","internalType":"uint256"}],"outputs":[],"stateMutability":"payable"},{"type":"function","name":"getPact","inputs":[{"name":"_pactId","type":"uint256","internalType":"uint256"}],"outputs":[{"name":"","type":"tuple","internalType":"struct RoboPact.Pact","components":[{"name":"creator","type":"address","internalType":"address"},{"name":"opponent","type":"address","internalType":"address"},{"name":"description","type":"string","internalType":"string"},{"name":"stake","type":"uint256","internalType":"uint256"},{"name":"deadline","type":"uint256","internalType":"uint256"},{"name":"creatorFinished","type":"bool","internalType":"bool"},{"name":"opponentFinished","type":"bool","internalType":"bool"},{"name":"resolved","type":"bool","internalType":"bool"},{"name":"winner","type":"address","internalType":"address"}]}],"stateMutability":"view"},{"type":"function","name":"getTotalPacts","inputs":[],"outputs":[{"name":"","type":"uint256","internalType":"uint256"}],"stateMutability":"view"},{"type":"function","name":"getUserPacts","inputs":[{"name":"_user","type":"address","internalType":"address"}],"outputs":[{"name":"","type":"uint256[]","internalType":"uint256[]"}],"stateMutability":"view"},{"type":"function","name":"markAsFinished","inputs":[{"name":"_pactId","type":"uint256","internalType":"uint256"}],"outputs":[],"stateMutability":"nonpayable"},{"type":"function","name":"nextPactId","inputs":[],"outputs":[{"name":"","type":"uint256","internalType":"uint256"}],"stateMutability":"view"},{"type":"function","name":"pacts","inputs":[{"name":"","type":"uint256","internalType":"uint256"}],"outputs":[{"name":"creator","type":"address","internalType":"address"},{"name":"opponent","type":"address","internalType":"address"},{"name":"description","type":"string","internalType":"string"},{"name":"stake","type":"uint256","internalType":"uint256"},{"name":"deadline","type":"uint256","internalType":"uint256"},{"name":"creatorFinished","type":"bool","internalType":"bool"},{"name":"opponentFinished","type":"bool","internalType":"bool"},{"name":"resolved","type":"bool","internalType":"bool"},{"name":"winner","type":"address","internalType":"address"}],"stateMutability":"view"},{"type":"function","name":"resolvePact","inputs":[{"name":"_pactId","type":"uint256","internalType":"uint256"}],"outputs":[],"stateMutability":"nonpayable"},{"type":"event","name":"PactCreated","inputs":[{"name":"pactId","type":"uint256","indexed":true,"internalType":"uint256"},{"name":"creator","type":"address","indexed":true,"internalType":"address"},{"name":"opponent","type":"address","indexed":true,"internalType":"address"},{"name":"description","type":"string","indexed":false,"internalType":"string"},{"name":"stake","type":"uint256","indexed":false,"internalType":"uint256"},{"name":"deadline","type":"uint256","indexed":false,"internalType":"uint256"}],"anonymous":false},{"type":"event","name":"PactFinished","inputs":[{"name":"pactId","type":"uint256","indexed":true,"internalType":"uint256"},{"name":"participant","type":"address","indexed":true,"internalType":"address"}],"anonymous":false},{"type":"event","name":"PactResolved","inputs":[{"name":"pactId","type":"uint256","indexed":true,"internalType":"uint256"},{"name":"winner","type":"address","indexed":true,"internalType":"address"},{"name":"amount","type":"uint256","indexed":false,"internalType":"uint256"}],"anonymous":false},{"type":"error","name":"AlreadyFinished","inputs":[]},{"type":"error","name":"NotParticipant","inputs":[]},{"type":"error","name":"PactAlreadyResolved","inputs":[]},{"type":"error","name":"PactNotExpired","inputs":[]},{"type":"error","name":"PactNotFound","inputs":[]}],"bytecode":{"object":"0x60806040526001805534801561001457600080fd5b5061129f806100246000396000f3fe6080604052600436106100865760003560e01c80634120174511610059578063412017451461014557806390c0686d14610158578063b6a74cc91461017c578063bd2a32db1461019c578063fccc2813146101b157600080fd5b80630edf25f51461008b57806321728d96146100c957806335325a01146100eb5780633c7bc6b714610118575b600080fd5b34801561009757600080fd5b506100ab6100a6366004610d90565b6101df565b6040516100c099989796959493929190610def565b60405180910390f35b3480156100d557600080fd5b506100e96100e4366004610d90565b6102d1565b005b3480156100f757600080fd5b5061010b610106366004610e73565b6105fc565b6040516100c09190610e95565b34801561012457600080fd5b50610138610133366004610d90565b61078d565b6040516100c09190610ed9565b6100e9610153366004610fa8565b610932565b34801561016457600080fd5b5061016e60015481565b6040519081526020016100c0565b34801561018857600080fd5b506100e9610197366004610d90565b610c1b565b3480156101a857600080fd5b5061016e610d7b565b3480156101bd57600080fd5b506101c761dead81565b6040516001600160a01b0390911681526020016100c0565b6000602081905290815260409020805460018201546002830180546001600160a01b0393841694929093169261021490611073565b80601f016020809104026020016040519081016040528092919081815260200182805461024090611073565b801561028d5780601f106102625761010080835404028352916020019161028d565b820191906000526020600020905b81548152906001019060200180831161027057829003601f168201915b50505050600383015460048401546005909401549293909290915060ff8082169161010081048216916201000082041690630100000090046001600160a01b031689565b600081815260208190526040902080546001600160a01b031661030757604051630fd2afe960e41b815260040160405180910390fd5b600581015462010000900460ff16156103335760405163627194b960e01b815260040160405180910390fd5b8060040154421015610358576040516326535c9b60e21b815260040160405180910390fd5b60058101805462ff0000191662010000179055600381015460009061037e9060026110c3565b600583015490915060ff16801561039e57506005820154610100900460ff165b1561043c57815460038301546040516001600160a01b039092169181156108fc0291906000818181858888f193505050501580156103e0573d6000803e3d6000fd5b50600182015460038301546040516001600160a01b039092169181156108fc0291906000818181858888f19350505050158015610421573d6000803e3d6000fd5b506005820180546301000000600160b81b03191690556105ab565b600582015460ff16801561045a57506005820154610100900460ff16155b156104ca5781546040516001600160a01b039091169082156108fc029083906000818181858888f19350505050158015610498573d6000803e3d6000fd5b5081546005830180546301000000600160b81b0319166001600160a01b039092166301000000029190911790556105ab565b600582015460ff161580156104e857506005820154610100900460ff165b1561055e5760018201546040516001600160a01b039091169082156108fc029083906000818181858888f19350505050158015610529573d6000803e3d6000fd5b5060018201546005830180546301000000600160b81b0319166001600160a01b039092166301000000029190911790556105ab565b60405161dead9082156108fc029083906000818181858888f1935050505015801561058d573d6000803e3d6000fd5b506005820180546301000000600160b81b03191664dead0000001790555b600582015460405182815263010000009091046001600160a01b03169084907f24d0d21ef1843db2803016e6ebc0e5a2d77509d49a7a360d69f7f6697bf150809060200160405180910390a3505050565b606060006001805461060e91906110e0565b67ffffffffffffffff81111561062657610626610f92565b60405190808252806020026020018201604052801561064f578160200160208202803683370190505b509050600060015b6001548110156106e8576000818152602081905260409020546001600160a01b03868116911614806106a557506000818152602081905260409020600101546001600160a01b038681169116145b156106d657808383815181106106bd576106bd6110f3565b6020908102919091010152816106d281611109565b9250505b806106e081611109565b915050610657565b5060008167ffffffffffffffff81111561070457610704610f92565b60405190808252806020026020018201604052801561072d578160200160208202803683370190505b50905060005b828110156107845783818151811061074d5761074d6110f3565b6020026020010151828281518110610767576107676110f3565b60209081029190910101528061077c81611109565b915050610733565b50949350505050565b604080516101208101825260008082526020808301829052606083850181905283018290526080830182905260a0830182905260c0830182905260e08301829052610100830182905284825281905291909120546001600160a01b031661080757604051630fd2afe960e41b815260040160405180910390fd5b6000828152602081815260409182902082516101208101845281546001600160a01b03908116825260018301541692810192909252600281018054929391929184019161085390611073565b80601f016020809104026020016040519081016040528092919081815260200182805461087f90611073565b80156108cc5780601f106108a1576101008083540402835291602001916108cc565b820191906000526020600020905b8154815290600101906020018083116108af57829003601f168201915b5050509183525050600382015460208201526004820154604082015260059091015460ff80821615156060840152610100820481161515608084015262010000820416151560a0830152630100000090046001600160a01b031660c09091015292915050565b600034116109875760405162461bcd60e51b815260206004820152601c60248201527f5374616b65206d7573742062652067726561746572207468616e20300000000060448201526064015b60405180910390fd5b6001600160a01b0382166109dd5760405162461bcd60e51b815260206004820152601860248201527f496e76616c6964206f70706f6e656e7420616464726573730000000000000000604482015260640161097e565b336001600160a01b03831603610a355760405162461bcd60e51b815260206004820181905260248201527f43616e6e6f74206372656174652070616374207769746820796f757273656c66604482015260640161097e565b60008111610a855760405162461bcd60e51b815260206004820152601f60248201527f4475726174696f6e206d7573742062652067726561746572207468616e203000604482015260640161097e565b6001805460009182610a9683611109565b9091555090506000610aa88342611122565b60408051610120810182523381526001600160a01b0387811660208084019182528385018b815234606086015260808501879052600060a0860181905260c0860181905260e08601819052610100860181905289815291829052949020835181549084166001600160a01b03199182161782559151600182018054919094169216919091179091559151929350916002820190610b459082611184565b50606082015160038201556080820151600482015560a08201516005909101805460c084015160e08501516101009586015161ffff1990931694151561ff001916949094179015159094029390931762010000600160b81b03191662010000921515929092026301000000600160b81b0319169190911763010000006001600160a01b039384160217905560405190851690339084907fff6fd6be6bae19975ad98b8ab40f6c49786bf8b9aad04be2b401ad40b44d1da590610c0c908a9034908890611244565b60405180910390a45050505050565b600081815260208190526040902080546001600160a01b0316610c5157604051630fd2afe960e41b815260040160405180910390fd5b600581015462010000900460ff1615610c7d5760405163627194b960e01b815260040160405180910390fd5b80546001600160a01b03163314801590610ca4575060018101546001600160a01b03163314155b15610cc25760405163721c7c6760e11b815260040160405180910390fd5b80546001600160a01b03163303610d0d57600581015460ff1615610cf9576040516336a683ad60e01b815260040160405180910390fd5b60058101805460ff19166001179055610d4a565b6005810154610100900460ff1615610d38576040516336a683ad60e01b815260040160405180910390fd5b60058101805461ff0019166101001790555b604051339083907f154df7a10f65a0fd8122a5a9c75b93e211ee833c90356b4a68f067a21caf2e8290600090a35050565b600060018054610d8b91906110e0565b905090565b600060208284031215610da257600080fd5b5035919050565b6000815180845260005b81811015610dcf57602081850181015186830182015201610db3565b506000602082860101526020601f19601f83011685010191505092915050565b6001600160a01b038a81168252898116602083015261012060408301819052600091610e1d8483018c610da9565b606085019a909a526080840198909852505093151560a085015291151560c0840152151560e0830152909116610100909101529392505050565b80356001600160a01b0381168114610e6e57600080fd5b919050565b600060208284031215610e8557600080fd5b610e8e82610e57565b9392505050565b6020808252825182820181905260009190848201906040850190845b81811015610ecd57835183529284019291840191600101610eb1565b50909695505050505050565b60208152610ef36020820183516001600160a01b03169052565b60006020830151610f0f60408401826001600160a01b03169052565b506040830151610120806060850152610f2c610140850183610da9565b915060608501516080850152608085015160a085015260a0850151610f5560c086018215159052565b5060c085015180151560e08601525060e0850151610100610f798187018315159052565b909501516001600160a01b031693019290925250919050565b634e487b7160e01b600052604160045260246000fd5b600080600060608486031215610fbd57600080fd5b833567ffffffffffffffff80821115610fd557600080fd5b818601915086601f830112610fe957600080fd5b813581811115610ffb57610ffb610f92565b604051601f8201601f19908116603f0116810190838211818310171561102357611023610f92565b8160405282815289602084870101111561103c57600080fd5b82602086016020830137600060208483010152809750505050505061106360208501610e57565b9150604084013590509250925092565b600181811c9082168061108757607f821691505b6020821081036110a757634e487b7160e01b600052602260045260246000fd5b50919050565b634e487b7160e01b600052601160045260246000fd5b80820281158282048414176110da576110da6110ad565b92915050565b818103818111156110da576110da6110ad565b634e487b7160e01b600052603260045260246000fd5b60006001820161111b5761111b6110ad565b5060010190565b808201808211156110da576110da6110ad565b601f82111561117f57600081815260208120601f850160051c8101602086101561115c5750805b601f850160051c820191505b8181101561117b57828155600101611168565b5050505b505050565b815167ffffffffffffffff81111561119e5761119e610f92565b6111b2816111ac8454611073565b84611135565b602080601f8311600181146111e757600084156111cf5750858301515b600019600386901b1c1916600185901b17855561117b565b600085815260208120601f198616915b82811015611216578886015182559484019460019091019084016111f7565b50858210156112345787850151600019600388901b60f8161c191681555b5050505050600190811b01905550565b6060815260006112576060830186610da9565b6020830194909452506040015291905056fea26469706673582212202703ad5797cfd06e3c2df8546e1d2ffd83873865bbabad7ee7928e2170c07b0a64736f6c63430008130033","linkReferences":{}},"methodIdentifiers":{"BURN_ADDRESS()":"fccc2813","createPact(string,address,uint256)":"41201745","getPact(uint256)":"3c7bc6b7","getTotalPacts()":"bd2a32db","getUserPacts(address)":"35325a01","markAsFinished(uint256)":"b6a74cc9","nextPactId()":"90c0686d","pacts(uint256)":"0edf25f5","resolvePact(uint256)":"21728d96"},"id":0}